:020000040002F8
:1060000000000420D5610200030A11181F262D3458
:106010003B424950575E656C737A81888F969DA488
:10602000ABB2B9C0C7CED5DCE3EAF1F8FF060D1478
:106030001B222930373E454C535A61686F767D8468
:106040008B9299A0A7AEB5BCC3CAD1D8DFE6EDF458
:10605000FB020910171E252C333A41484F565D6448
:106060006B727980878E959CA3AAB1B8BFC6CDD438
:10607000DBE2E9F0F7FE050C131A21282F363D4428
:106080004B525960676E757C838A91989FA6ADB418
:10609000BBC2C9D0D7DEE5ECF3FA01080F161D2408
:1060A0002B323940474E555C636A71787F868D94F8
:1060B0009BA2A9B0B7BEC5CCD3DAE1E8EFF6FD04E8
:1060C0000B121920272E353C434A51585F666D74D8
:1060D0007B828990979EA5ACB3BAC1C8CFD6DDE4C8
:1060E000EBF2F900070E151C232A31383F464D54B8
:1060F0005B626970777E858C939AA1A8AFB6BDC4A8
:10610000CBD2D9E0E7EEF5FC030A11181F262D3497
:106110003B424950575E656C737A81888F969DA487
:10612000ABB2B9C0C7CED5DCE3EAF1F8FF060D1477
:106130001B222930373E454C535A61686F767D8467
:106140008B9299A0A7AEB5BCC3CAD1D8DFE6EDF457
:10615000FB020910171E252C333A41484F565D6447
:106160006B727980878E959CA3AAB1B8BFC6CDD437
:10617000DBE2E9F0F7FE050C131A21282F363D4427
:106180004B525960676E757C838A91989FA6ADB417
:10619000BBC2C9D0D7DEE5ECF3FA01080F161D2407
:1061A0002B323940474E555C636A71787F868D94F7
:1061B0009BA2A9B0B7BEC5CCD3DAE1E8EFF6FD04E7
:1061C0000B121920272E353C434A51585F666D74D7
:1061D0007B828990979EA5ACB3BAC1C8CFD6DDE4C7
:1061E000EBF2F900070E151C232A31383F464D54B7
:1061F0005B626970777E858C939AA1A8AFB6BDC4A7
:10620000CBD2D9E0E7EEF5FC030A11181F262D3496
:106210003B424950575E656C737A81888F969DA486
:10622000ABB2B9C0C7CED5DCE3EAF1F8FF060D1476
:106230001B222930373E454C535A61686F767D8466
:106240008B9299A0A7AEB5BCC3CAD1D8DFE6EDF456
:10625000FB020910171E252C333A41484F565D6446
:106260006B727980878E959CA3AAB1B8BFC6CDD436
:10627000DBE2E9F0F7FE050C131A21282F363D4426
:106280004B525960676E757C838A91989FA6ADB416
:10629000BBC2C9D0D7DEE5ECF3FA01080F161D2406
:1062A0002B323940474E555C636A71787F868D94F6
:1062B0009BA2A9B0B7BEC5CCD3DAE1E8EFF6FD04E6
:1062C0000B121920272E353C434A51585F666D74D6
:1062D0007B828990979EA5ACB3BAC1C8CFD6DDE4C6
:1062E000EBF2F900070E151C232A31383F464D54B6
:1062F0005B626970777E858C939AA1A8AFB6BDC4A6
:10630000CBD2D9E0E7EEF5FC030A11181F262D3495
:106310003B424950575E656C737A81888F969DA485
:10632000ABB2B9C0C7CED5DCE3EAF1F8FF060D1475
:106330001B222930373E454C535A61686F767D8465
:106340008B9299A0A7AEB5BCC3CAD1D8DFE6EDF455
:10635000FB020910171E252C333A41484F565D6445
:106360006B727980878E959CA3AAB1B8BFC6CDD435
:10637000DBE2E9F0F7FE050C131A21282F363D4425
:106380004B525960676E757C838A91989FA6ADB415
:10639000BBC2C9D0D7DEE5ECF3FA01080F161D2405
:1063A0002B323940474E555C636A71787F868D94F5
:1063B0009BA2A9B0B7BEC5CCD3DAE1E8EFF6FD04E5
:1063C0000B121920272E353C434A51585F666D74D5
:1063D0007B828990979EA5ACB3BAC1C8CFD6DDE4C5
:1063E000EBF2F900070E151C232A31383F464D54B5
:1063F0005B626970777E858C939AA1A8AFB6BDC4A5
:10640000CBD2D9E0E7EEF5FC030A11181F262D3494
:106410003B424950575E656C737A81888F969DA484
:10642000ABB2B9C0C7CED5DCE3EAF1F8FF060D1474
:106430001B222930373E454C535A61686F767D8464
:106440008B9299A0A7AEB5BCC3CAD1D8DFE6EDF454
:10645000FB020910171E252C333A41484F565D6444
:106460006B727980878E959CA3AAB1B8BFC6CDD434
:10647000DBE2E9F0F7FE050C131A21282F363D4424
:106480004B525960676E757C838A91989FA6ADB414
:10649000BBC2C9D0D7DEE5ECF3FA01080F161D2404
:1064A0002B323940474E555C636A71787F868D94F4
:1064B0009BA2A9B0B7BEC5CCD3DAE1E8EFF6FD04E4
:1064C0000B121920272E353C434A51585F666D74D4
:1064D0007B828990979EA5ACB3BAC1C8CFD6DDE4C4
:1064E000EBF2F900070E151C232A31383F464D54B4
:1064F0005B626970777E858C939AA1A8AFB6BDC4A4
:10650000CBD2D9E0E7EEF5FC030A11181F262D3493
:106510003B424950575E656C737A81888F969DA483
:10652000ABB2B9C0C7CED5DCE3EAF1F8FF060D1473
:106530001B222930373E454C535A61686F767D8463
:106540008B9299A0A7AEB5BCC3CAD1D8DFE6EDF453
:10655000FB020910171E252C333A41484F565D6443
:106560006B727980878E959CA3AAB1B8BFC6CDD433
:10657000DBE2E9F0F7FE050C131A21282F363D4423
:106580004B525960676E757C838A91989FA6ADB413
:10659000BBC2C9D0D7DEE5ECF3FA01080F161D2403
:1065A0002B323940474E555C636A71787F868D94F3
:1065B0009BA2A9B0B7BEC5CCD3DAE1E8EFF6FD04E3
:1065C0000B121920272E353C434A51585F666D74D3
:1065D0007B828990979EA5ACB3BAC1C8CFD6DDE4C3
:1065E000EBF2F900070E151C232A31383F464D54B3
:1065F0005B626970777E858C939AA1A8AFB6BDC4A3
:10660000CBD2D9E0E7EEF5FC030A11181F262D3492
:106610003B424950575E656C737A81888F969DA482
:10662000ABB2B9C0C7CED5DCE3EAF1F8FF060D1472
:106630001B222930373E454C535A61686F767D8462
:106640008B9299A0A7AEB5BCC3CAD1D8DFE6EDF452
:10665000FB020910171E252C333A41484F565D6442
:106660006B727980878E959CA3AAB1B8BFC6CDD432
:10667000DBE2E9F0F7FE050C131A21282F363D4422
:106680004B525960676E757C838A91989FA6ADB412
:10669000BBC2C9D0D7DEE5ECF3FA01080F161D2402
:1066A0002B323940474E555C636A71787F868D94F2
:1066B0009BA2A9B0B7BEC5CCD3DAE1E8EFF6FD04E2
:1066C0000B121920272E353C434A51585F666D74D2
:1066D0007B828990979EA5ACB3BAC1C8CFD6DDE4C2
:1066E000EBF2F900070E151C232A31383F464D54B2
:1066F0005B626970777E858C939AA1A8AFB6BDC4A2
:10670000CBD2D9E0E7EEF5FC030A11181F262D3491
:106710003B424950575E656C737A81888F969DA481
:10672000ABB2B9C0C7CED5DCE3EAF1F8FF060D1471
:106730001B222930373E454C535A61686F767D8461
:106740008B9299A0A7AEB5BCC3CAD1D8DFE6EDF451
:10675000FB020910171E252C333A41484F565D6441
:106760006B727980878E959CA3AAB1B8BFC6CDD431
:10677000DBE2E9F0F7FE050C131A21282F363D4421
:106780004B525960676E757C838A91989FA6ADB411
:10679000BBC2C9D0D7DEE5ECF3FA01080F161D2401
:1067A0002B323940474E555C636A71787F868D94F1
:1067B0009BA2A9B0B7BEC5CCD3DAE1E8EFF6FD04E1
:1067C0000B121920272E353C434A51585F666D74D1
:10690000C0CDDAE7F4010E1B2835424F5C6976836F
:10691000909DAAB7C4D1DEEBF805121F2C3946535F
:10692000606D7A8794A1AEBBC8D5E2EFFC0916234F
:10693000303D4A5764717E8B98A5B2BFCCD9E6F33F
:10694000000D1A2734414E5B6875828F9CA9B6C32F
:10695000D0DDEAF704111E2B3845525F6C7986931F
:10696000A0ADBAC7D4E1EEFB0815222F3C4956630F
:10697000707D8A97A4B1BECBD8E5F2FF0C192633FF
:10698000404D5A6774818E9BA8B5C2CFDCE9F603EF
:10699000101D2A3744515E6B7885929FACB9C6D3DF
:1069A000E0EDFA0714212E3B4855626F7C8996A3CF
:1069B000B0BDCAD7E4F1FE0B1825323F4C596673BF
:1069C000808D9AA7B4C1CEDBE8F5020F1C293643AF
:1069D000505D6A7784919EABB8C5D2DFECF906139F
:1069E000202D3A4754616E7B8895A2AFBCC9D6E38F
:1069F000F0FD0A1724313E4B5865727F8C99A6B37F
:106A0000C0CDDAE7F4010E1B2835424F5C6976836E
:106A1000909DAAB7C4D1DEEBF805121F2C3946535E
:106A2000606D7A8794A1AEBBC8D5E2EFFC0916234E
:106A3000303D4A5764717E8B98A5B2BFCCD9E6F33E
:106A4000000D1A2734414E5B6875828F9CA9B6C32E
:106A5000D0DDEAF704111E2B3845525F6C7986931E
:106A6000A0ADBAC7D4E1EEFB0815222F3C4956630E
:106A7000707D8A97A4B1BECBD8E5F2FF0C192633FE
:106A8000404D5A6774818E9BA8B5C2CFDCE9F603EE
:106A9000101D2A3744515E6B7885929FACB9C6D3DE
:106AA000E0EDFA0714212E3B4855626F7C8996A3CE
:106AB000B0BDCAD7E4F1FE0B1825323F4C596673BE
:106AC000808D9AA7B4C1CEDBE8F5020F1C293643AE
:106AD000505D6A7784919EABB8C5D2DFECF906139E
:106AE000202D3A4754616E7B8895A2AFBCC9D6E38E
:106AF000F0FD0A1724313E4B5865727F8C99A6B37E
:106B0000C0CDDAE7F4010E1B2835424F5C6976836D
:106B1000909DAAB7C4D1DEEBF805121F2C3946535D
:106B2000606D7A8794A1AEBBC8D5E2EFFC0916234D
:106B3000303D4A5764717E8B98A5B2BFCCD9E6F33D
:106B4000000D1A2734414E5B6875828F9CA9B6C32D
:106B5000D0DDEAF704111E2B3845525F6C7986931D
:106B6000A0ADBAC7D4E1EEFB0815222F3C4956630D
:106B7000707D8A97A4B1BECBD8E5F2FF0C192633FD
:106B8000404D5A6774818E9BA8B5C2CFDCE9F603ED
:106B9000101D2A3744515E6B7885929FACB9C6D3DD
:106BA000E0EDFA0714212E3B4855626F7C8996A3CD
:106BB000B0BDCAD7E4F1FE0B1825323F4C596673BD
:106BC000808D9AA7B4C1CEDBE8F5020F1C293643AD
:106BD000505D6A7784919EABB8C5D2DFECF906139D
:106BE000202D3A4754616E7B8895A2AFBCC9D6E38D
:106BF000F0FD0A1724313E4B5865727F8C99A6B37D
:106C0000C0CDDAE7F4010E1B2835424F5C6976836C
:106C1000909DAAB7C4D1DEEBF805121F2C3946535C
:106C2000606D7A8794A1AEBBC8D5E2EFFC0916234C
:106C3000303D4A5764717E8B98A5B2BFCCD9E6F33C
:106C4000000D1A2734414E5B6875828F9CA9B6C32C
:106C5000D0DDEAF704111E2B3845525F6C7986931C
:106C6000A0ADBAC7D4E1EEFB0815222F3C4956630C
:106C7000707D8A97A4B1BECBD8E5F2FF0C192633FC
:106C8000404D5A6774818E9BA8B5C2CFDCE9F603EC
:106C9000101D2A3744515E6B7885929FACB9C6D3DC
:106CA000E0EDFA0714212E3B4855626F7C8996A3CC
:106CB000B0BDCAD7E4F1FE0B1825323F4C596673BC
:106CC000808D9AA7B4C1CEDBE8F5020F1C293643AC
:106CD000505D6A7784919EABB8C5D2DFECF906139C
:096CE000202D3A4754616E7B88B7
:020000041000EA
:0110140000DB
:00000001FF
